:020000040800F2
:10000000FF6F012009000008DFF850D00021144ADA
:1000100003E0144B5B58435004311148124B421813
:100020009A42F6D30021114A03E0114B5B5843502A
:1000300004310E480F4B42189A42F6D30E4A02E0A2
:10004000002342F8043B0D4B9A42F9D3FFE700F03E
:100050001FF800F025F800F013F8FEE7FF6F01200D
:1000600000000020B0000008B8660020B86600203C
:1000700070CD0040C6660020C86600207C8B002042
:1000800001B40248844601BC604700BF91030020D0
:1000900001B40248844601BC604700BFAD050020A2
:1000A00001B40248844601BC604700BF89010020BA
:1000B000FF6F01204E00000881560020815600206D
:1000C000815600208156002081560020000000004B
:1000D0000000000000000000000000008156002029
:1000E00081560020000000008156002031080020C9
:1000F0008156002081560020815600208156002024
:100100008156002081560020815600207108002071
:10011000815600207708002081560020815600205B
:100120004D080020590800204108002065080020E3
:1001300081560020815600208156002081560020E3
:100140008156002081560020815600207D08002025
:1001500081560020815600208156002081560020C3
:1001600081560020815600208156002081560020B3
:1001700081560020815600208156002081560020A3
:100180008156002081560020815600208156002093
:1001900085080020815600208156002081560020CD
:1001A0008156002081560020815600208156002073
:1001B0008156002081560020815600208156002063
:1001C0008156002081560020815600208156002053
:1001D0008156002081560020815600208156002043
:1001E0008156002081560020815600208156002033
:1001F0008156002081560020815600208156002023
:100200008156002081560020815600208156002012
:100210008156002081560020815600208156002002
:1002200081560020815600208156002000000000E9
:080230008156002081560020D8
:1002380070B50F4E0F4D761BB61018BF002405D0B1
:10024800013455F8043B9847A642F9D10A4E0B4DA4
:10025800761B06F06BFAB61018BF002406D00134DE
:1002680055F8043B9847A642F9D170BD70BD00BF50
:10027800846600208466002084660020846600204E
:1002880070B4840746D0541E002A41D0CDB203462C
:1002980002E0621EE4B3144603F8015B9A07F8D142
:1002A800032C2ED9CDB245EA05250F2C45EA054584
:1002B80019D903F110022646103E0F2E42F8105CA1
:1002C80042F80C5C42F8085C42F8045C02F1100247
:1002D800F2D8A4F1100222F00F0204F00F04103239
:1002E800032C13440DD91E462246043A032A46F825
:1002F800045BFAD8221F22F003020432134404F0EC
:1003080003042CB1C9B21C4403F8011BA342FBD15E
:1003180070BC704714460346C2E700BF014B18681B
:10032800704700BFD066002038B501F0D5F900F05D
:1003380047FB054601F0ECF81A4C2060284601F00E
:10034800E1F8194A194B1A49186013680B6051688B
:10035800184A116022689A4204D0174B07221A6083
:10036800012038BD00F030FB14490822054605F08D
:10037800ABFCA0B9104B01241C6028461049082288
:1003880005F0A2FC10B90C4B02241C6001F0E6FA3F
:10039800012803BF084B03221A60204638BD0024F9
:1003A800EBE700BFCC6600209C660020D4660020E6
:1003B800D8660020C8660020D0660020B85D0020FE
:1003C8009C5E002010B1044B1B68036011B1024B06
:1003D8005B680B60002070479C66002010B1044BDE
:1003E8009B68036011B1024BDB680B60002070470B
:1003F8009C66002010B500F0E7FA0A49082205F0CB
:1004080063FC58B100F056FB00F0DEFA0821054AFB
:1004180000F08CFB044600F052FB00E00446204646
:1004280010BD00BF9C5E002008B500F0CDFABDE805
:10043800084000F0F7BA000073B501F0D5F8FFF7EF
:1004480073FF494C20B101282FD1FFF7EDFF2CE0B5
:1004580001F004F900F0B4FA054600F0EBFF20B90A
:10046800424804F071FE04231EE02846012101AA37
:1004780001F054F80646B0B9019B5D6800F0B8FA7F
:10048800854210D300F0B8FA85420CD802F0DEF8A5
:1004980001F074F801F07AF886F31088019B1B6864
:1004A80083F30888A8470623236003F00BFA01F0BA
:1004B8009BF801F011F901F0D1F801F0EBF801F027
:1004C80023FF01F01FFB01F03FFC294804F03CFE2C
:1004D80028482168284A04F06AFE2368072B20D19F
:1004E800264804F031FE264B26481968264A04F0AF
:1004F8005EFE264B264A1968264804F058FE264810
:1005080004F022FE254B264819681F4A04F04FFEC6
:10051800244B204819681E4A04F049FE224804F07A
:1005280013FE05F0EFF801F02DFAC8B901F028FC28
:100538001E4804F009FE01F025FA0028FBD001F05E
:1005480053F801F0C9F801F089F801F0A3F801F0B7
:10055800DBFE01F0D7FA01F0F7FB154804F0F4FDD3
:1005680001F0F8FCDFE700BFD0660020C05D002086
:10057800DB5D0020FB5D0020095E00200D5E002091
:10058800CC660020375E00203F5E0020D866002041
:10059800405E002039640020415E0020D4660020BF
:1005A8004A5E0020C8660020525E00205A5E002085
:1005B800705E002010B500F07DFA044800F084FA5F
:1005C800044600F07CFA204610BD00BFB85D00204C
:1005D80010B5044600F0ECFF38B1002001F022FA13
:1005E8000020BDE8104001F031BA2046BDE81040B7
:1005F80001F070B90168074B994201D101F02EBC96
:10060800054B994201D101F07BBF0448044A04F02C
:10061800CEBD00BF0038004000300140775E0020AA
:10062800345E00200168074B994201D101F020BCDB
:10063800054B994201D101F05DBF0448044A04F01A
:10064800B6BD00BF0038004000300140895E002080
:10065800345E00200F49D1F8883043F47003C1F8A4
:1006680088300D4B1A68002042F001021A60986029
:100678001A6822F0A85222F410221A604FF400627D
:10068800DA601A6822F480221A6098614FF00053E9
:100698008B60704700ED00E0001002400B4B07B57F
:1006A8001A6E42F001021A661B6E03F001030193F1
:1006B8000320019B03F032F900214FF0FF300A4676
:1006C80003F03EF903B05DF804FB00BF00100240E0
:1006D8002DE9F0470268524B9A4288B0054642D14C
:1006E80003F5EC334F4C9A6D4F4842F480429A65BB
:1006F8009B6D03F480430193019B4FF47043039374
:10070800022304930323002603A9069305230793D2
:10071800059603F07FF9454BA6604FF001094FF0AD
:1007280080084FF40057204684E80802E660C4F8C1
:1007380010806661A661E661276203F003FEAC657E
:10074800A5623B4B3B4C84E8080220461023A3607B
:10075800E660C4F810806661A661E661276203F06E
:10076800F1FD6C65A5622A68334B9A4254D103F5B2
:10077800604300211A6E42F480521A661B6E03F41D
:1007880080531422029303A8029BFFF779FDF023FC
:1007980003930223032404934FF09040052303A9F5
:1007A80000260793012706944FF0100A03F032F948
:1007B80003A94FF090400694CDF80CA01F4C049765
:1007C800059603F027F9384601F026F91C4BA66078
:1007D8004FF080094FF40058204684E88800E6600E
:1007E800C4F810906661A661E661C4F8208003F041
:1007F800A9FDAC65A562134C134BE660204684E85E
:100808008804C4F810906661A661E661C4F8208087
:1008180003F098FD6C65A56208B0BDE8F08700BFDD
:1008280000380040686A0020000400484400024084
:1008380058000240A46A002000300140E88A0020E5
:100848001C000240248B0020300002400268164B36
:100858009A4210B504460FD1144A1548936D23F4F3
:10086800804393654FF4704103F0B2F9A06D03F033
:1008780037FE606D03F034FE22680E4B9A4211D1A8
:100888000A4A136E23F4805313664FF09040F02108
:1008980003F09EF9A06D03F023FE606DBDE81040E3
:1008A80003F01EBE10BD00BF00380040001002401B
:1008B8000004004800300140064B1A68884208DCF2
:1008C80001238340134202D098B203F023BA0130C7
:1008D800F4E770471404014008B503F005F8BDE8D3
:1008E800084003F092B80000014804F019B800BFAE
:1008F800686A0020014804F013B800BFE88A0020A5
:10090800014804F00DB800BF248B0020014804F012
:1009180007B800BFA46A0020022003F0FBB9082032
:1009280003F0F8B905200921FFF7C6BF0A200F21F7
:10093800FFF7C2BF0B4B1B884FF6FF72934209D0DB
:10094800C3F30B035B0203F10063984206D200F184
:10095800784004E0044B9842F9D90133C01AC00A20
:10096800704700BFE075FF1FFFFF0708114B124AD1
:100978001B6813F4807F4FF6FF730DD111889942DD
:100988001BBFC1F30B0252020C4A02F100629042F3
:1009980034BF01200220704712889A421BBFC2F35D
:1009A8000B035B02054B03F10063984234BF02203E
:1009B8000120704700000140E075FF1F0000080893
:1009C8000048704700800008074B18884FF6FF73EF
:1009D80098421FBFC0F30B00800200F1FF6000F5D2
:1009E800FF2008BF01487047E075FF1F00F80F0897
:1009F8000048704700820008084B18884FF6FF73BC
:100A080098421FBFC0F30B00800200F100606FF432
:100A1800006314BFC0180248704700BFE075FF1F8D
:100A2800FFF70F0870B586B000240546019404F05E
:100A380027FA0C4B4FF400421A612846FFF77AFF59
:100A480006462846FFF792FF0123039001A902A852
:100A580005930294049604F009FB04F023FA06B007
:100A680070BD00BF00200240F0B587B000274418D1
:100A78000546019704F004FA0D4B4FF400421A6141
:100A88002846FFF757FF06462046FFF753FF013079
:100A9800841B2846FFF76AFF01A9039002A8029762
:100AA8000496059404F0E2FA00B1FEE707B0F0BD41
:100AB8000020024008B504F0E3F9002008BD08B59D
:100AC80004F0F0F9002008BD38B5144B19884FF62A
:100AD800FF7291421EBFC1F30B01890201F1FF6150
:100AE8001D4614BF01F5FF210D490E4A04460E4864
:100AF80004F05DFB29884FF6FF7399421FBFC1F3CD
:100B08000B01890201F1FF6101F5FF2108BF0449CA
:100B1800D4E90023002004F013FA38BDE075FF1F64
:100B280000F80F08345E0020E45E00202DE9F34150
:100B380006460D4617460024AC4204EB06081CD2B4
:100B48004FF0FF3202A84FF0FF3360E902232A1B5F
:100B5800072A07EB040102D805F0E8F803E003468A
:100B68000868496803C300204146DDE9002304F012
:100B7800E7F908B90834DFE7FEE7002002B0BDE86E
:100B8800F08100000148FFF74DBF00BF008000085A
:100B980038B504460D4604F073F929462246034841
:100BA800FFF7C4FF04F07EF9002038BD008000087C
:100BB8000144884205D010F8013B9342F9D0002047
:100BC8007047012070472DE9F74FBDF83460019157
:100BD8009A46934681460C9FDDF8388001F0AAF8C2
:100BE80006F108050023ADB201990580044641804D
:100BF80080F804B080F805A08371C3712EB127B1C5
:100C080008303946324605F091F8484621462A46CA
:100C1800434603B0BDE8F04F00F076BB034B18889D
:100C2800421C00281A8008BF01207047BC660020BB
:100C380008B500F063FB083880B208BD1FB5009303
:100C4800BDF818300193079B02930023FFF7BBFF01
:100C580005B05DF804FB30B585B04D8814460A79B7
:100C68000093BDF820300193099B0293294642F076
:100C780080022346FFF7A7FF05B030BD072A7FB5DE
:100C880005460C4603D8374804F05EFA47E00B796E
:100C9800013B0022052B58D8DFE803F0030F182486
:100CA800364801238DF80D3002238DF80C2000936F
:100CB80001922146002203AB4FE004AB022123F846
:100CC800042D8DE806002146002246E000F052FC83
:100CD80004AB022223F8040D009200220192284658
:100CE80021463AE000F042FC064600F043FC0022B0
:100CF80000900192284621463346FFF7ACFF70BBAF
:100D0800194B01221A702AE023880A2B0AD00023E3
:100D180000930193284621460622FFF79CFF4FF0D7
:100D2800FF301CE0114B22891A6007E023880A2B48
:100D3800EDD10E4B22891B689A42E8D1002200921D
:100D4800019228462146134607E06088002330B107
:100D580000930193284621460622FFF77CFF04B042
:100D680070BD00BFF95E0020DC660020E066002050
:100D780013B54C88002324B100930193FFF76BFF50
:100D880000E0204602B010BD30B5072A97B00546EE
:100D98000C4605D83D4804F0D7F94FF0FF3072E013
:100DA8000B79013B0B2B6BD8DFE803F0060E315AA9
:100DB8005A4C545A6A5A6A5C072300228DF80D303F
:100DC8008DF80C2002231CE0012304A903A80B932F
:100DD800FFF704FB06A905A8FFF7F4FA09A807A975
:100DE80000F0ECFB00230C93294A9A5C2AB103A972
:100DF8001944013381F82820F6E701238DF854308F
:100E08004923009301922846214603AB35E0097A2D
:100E1800012902D0022904D00CE01E4804F094F9FC
:100E28000CE01D4804F090F9FFF77EFA30B9FFF79F
:100E3800C1FB03E019481A4A04F0B9F902F0BCFDF5
:100E4800002020E00622FFF793FF002814BFFE20B1
:100E5800002018E016AB032203F84C2D012207E00E
:100E680000220EE0FFF75AFA16AB042243F84C0DA5
:100E780000920022019228462146FFF7ECFE02E08C
:100E88000622FFF775FF17B030BD00BF275F0020AF
:100E9800545F0020605F00206F5F0020835F0020A8
:100EA800345E0020704700001FB50021142220483E
:100EB800FFF7E6F91F4B00221A7000F039FC1E49B3
:100EC80000280B7814BF0C200E20022B17D80133F2
:100ED800DAB240FA03F3DC070FD504AC0A7004F861
:100EE800042DFFF79BFE012200238DE80C00134B15
:100EF800014602221868234616E01346E5E70B7000
:100F080002238DF80C30FFF789FE0D4B1B78044641
:100F18000BB1FFF789FA012300930A4B0193074BA2
:100F280021461868042203ABFFF788FE04B010BD01
:100F3800E8660020E4660020FE660020E0660020E7
:100F480003690020FD0D0020034A00231370034AA3
:100F58001370FFF7A9BF00BFFE66002003690020D9
:100F68002DE9FF47AE4F3B68984204460D461646AA
:100F780001D0AC4802E0072A05D8AB4804F0E4F8F1
:100F88004FF0FF30ABE10B8893420DD9A74804F02E
:100F9800DBF83146A648A74A04F009F9A64829888B
:100FA800A44A04F004F9EBE791F90430002B05DAC0
:100FB800497919B1A1489F4A04F0F9F82B79822B95
:100FC8001FD00DD8012B4FF000020FD0052B40F099
:100FD80082819B4B0193009220462946134677E174
:100FE800832B45D0842B00F06B8174E18DF8093098
:100FF800022300938DF8082001922046294602AB6F
:1010080066E16C79002C40F05881083E032E01D827
:101018008C48B3E78C4EAB6833603368B3F5007F18
:1010280020D902944FF400740394FFF7F7FD874B1F
:101038001B78022B01BF33680294A3F50073336059
:10104800082200238DE80C0001460322386802AB11
:10105800FFF7F4FD002840F042817D4B4FF4007209
:101068005A603CE17B4804F06FF8FFF71DFFD4E0BD
:10107800794C237805F10806002B40F08380304630
:1010880000F0D8F908B9754878E731464FF400728E
:10109800734804F04BFE012005F17801207000F040
:1010A8001FFA704B80B2FE281880984601D16E480E
:1010B80064E7FFF79FF920B16C4804F045F802F0A7
:1010C8007BFCB8F80030624C142202FB0353D3F8BF
:1010D800843023605C4BD3F80080A8F50073E3608C
:1010E8000023A3602361594B1A78022A18D14FF4C0
:1010F80000733046A36001F00DF9E368C8EB030301
:1011080003F500731844E06003255948314601F09F
:1011180011F930B3574804F017F8013DF5D11EE036
:10112800032A01D1FFF72EFD2068E168FFF79CFC38
:101138002368A26802EB0309636805F50275A3F545
:10114800007A4FF00308484651462A46FFF7EEFC5E
:1011580038B1494803F0F8FFB8F10108F3D102F0BB
:101168002BFC6168A268E3680A445B1AA2F5007266
:1011780003F50073A260E360FFF75AFD20F0070053
:10118800606030E0314B324C1B78022B0FD10325C5
:1011980037482269314601F085F930B1374803F004
:1011A800D3FF013DF4D102F007FC256914E0A268E1
:1011B8002368256902EB03094FF0030848462946CE
:1011C8003246FFF7B3FC38B12D4803F0BDFFB8F144
:1011D8000108F3D102F0F0FBA368214E2B44A36071
:1011E800E3685D1BE5601A4AD16800294ADD536847
:1011F8008B4228BF0B4613619268039302F5007275
:1012080002920024FFF70AFD08238DE81800014622
:10121800032238686B44FFF711FD20465FE000BFEA
:10122800E06600208B5F0020B15F0020DA5F0020BD
:1012380009600020345E0020216000203960002011
:10124800A10E002067600020FF680020FE660020D5
:10125800E866002098600020E4660020AC6000206A
:10126800FF660020FC660020B9600020CE600020E8
:101278008C650020EC6000200E6100202F610020AA
:101288004F610020174B1A78022A1C4603D11648D2
:1012980001F01CF901E0FFF712FC2378032B08D1B9
:1012A800304600F0C7F820B110484FF40071FFF73E
:1012B8006FFC0F4A137801331370FFF7F5FD0DE04B
:1012C800687960B10B4803F03FFF6879404206E057
:1012D800FFF7C1FC03E0084803F036FF002004B024
:1012E800BDE8F087FE6600208C650020FF660020C0
:1012F800036900206A6100209C61002008B500F0A5
:101308001DFD023880B208BD21F8020D0846911C67
:101318001A46002300F044BD10B50A460188012989
:10132800034610D009D34FF6FF7081421AD1084600
:10133800023A991CFFF728FD10E0991C023A002098
:10134800FFF79CFC0AE00846023A991CFFF708FEE2
:10135800044660B1074803F0F7FE08E0044630B1E0
:101368000548F8E70548064A03F021FF002420460F
:1013780010BD00BFC3610020A5610020DD61002011
:10138800345E0020431E042B08D9A0F18003012BF2
:1013980004D9A0F1FE035842584170470120704714
:1013A8002DE9F843077804463846884691461E4694
:1013B800FFF7E8FF054618B91B4803F0C5FE30E003
:1013C800FE2F02D1012333702BE0E6682369701CDD
:1013D80027D0A268934201D214481FE0D8F84C10D5
:1013E800B142334405D3994203D2012F08BF89F88B
:1013F800007004F1140000E0143008F50072904207
:101408000FD20278FE2A0CD0C268511C09D0046998
:101418001444B442F0D39A42EED2054803F094FE45
:1014280000252846BDE8F883FF61002016620020E9
:101438003162002073B503780024542B05468DF8DB
:1014480006408DF8074008D14378462B05D18378AC
:10145800542B02D1C378462B04D01C4803F074FEE9
:1014680000242FE04368B3F5007F01D0184827E037
:1014780000F1700605F500718E429DF8074002D311
:101488007CB914481CE0002CFAD1304629460DF1ED
:1014980006020DF10703FFF783FF044690B11436E7
:1014A800E8E7EB6C23B19DF806400CB90A4807E061
:1014B8003046891B0022FFF77BFB044610B907481A
:1014C80003F042FE204602B070BD00BF4662002015
:1014D8005A6200207162002089620020A662002002
:1014E80010B500221423534394B2CB5C834201D13C
:1014F800E3B205E0FE2B03D00132142AF2D1FE2319
:10150800184610BD08B1C06D70474FF0FF307047E6
:1015180008B1806D70474FF0FF307047F7B5064649
:101528000024084606F1700117468DF806408DF82C
:101538000740FFF7D5FFFE2802D14FF0FF3012E039
:10154800142303FB00F505F17000304431460DF11A
:1015580006020DF10703FFF723FF0028EDD03544FD
:101568002046EB6F3B6003B0F0BD000000487047B9
:10157800CD6200204FF4B27070470000024B002289
:101588001A605A609A60704710E000E00022074B2A
:101598001B689A4208D202F1382360339B004FF04F
:1015A800FF3119600132F2E7704700BF04E000E044
:1015B800A0F580535842584170470000084B70B559
:1015C8001E685C6823461D46064B00221B6842EADB
:1015D8000604C1E9004503604260104670BD00BFC3
:1015E8009075FF1F9875FF1F10B51B4B9A6D42F041
:1015F8008052B4B09A659B6D4FF4807209921022A4
:101608000A9203F080530122009311920A22009B50
:1016180012920223072206A8139206930F9310939F
:101628001493159301F036F80F2300240193042135
:10163800032301A8029303940494059401F0B8FBD2
:101648008123169316A84FF400432094279301F0A2
:1016580085FE34B010BD00BF0010024008B500F090
:10166800B9F80A480A4B4FF4E13E80E808400023E5
:101678008360C360036108228361C36103624362BC
:10168800BDE80840426103F0C6BF00BF04690020FE
:10169800004800400F4B07B59A6C42F001029A646B
:1016A8009B6C03F001030193042100220E20019B8F
:1016B80002F046F90E2002F073F9042100220F20EF
:1016C80002F03EF90F2002F06BF900F027F903B0A1
:1016D8005DF804FB0010024030B5142587B000F017
:1016E80031F82A4601A80021FEF7CAFD04230DEBB4
:1016F800030101240C480193029402F08BF90020A5
:1017080000F0A4F9002000F08DF92A4601A8002174
:10171800FEF7B6FD0548019401A902F07BF900F037
:101728008BF807B030BD00BF00080048000400482F
:10173800034B1868C0B20F288CBF002001207047E7
:101748001878FF1F10B5224CE36C43F00103E364E3
:10175800E36C88B003F001030193019BE36C43F051
:101768000203E364E36C03F002030293029BE36C5D
:1017780043F00403E364E36C03F004030393039B63
:10178800E36C43F00803E364E36C03F00803049399
:10179800049B03F0C7FCA36D43F08053A365A36DBE
:1017A80003F080530593059BE36C43F04003E36427
:1017B800E36C03F040030693069BE36C43F080035D
:1017C800E364E36C03F080030793079B08B010BD44
:1017D80000100240164B2DE9F0419A6D154C42F469
:1017E80080229A659B6D86B003F480230093009B4A
:1017F8004FF002084FF4806301270326072520468F
:1018080001A90193CDF8088003970496059502F085
:1018180001F94FF40063204601A90193CDF808802F
:1018280003970496059502F0F5F806B0BDE8F08137
:101838000010024000080048F0B5224F87B0142479
:10184800224601A80021FEF71BFD4FF4005338463D
:1018580001A9019302F0DEF8224601A80021FEF753
:101868000FFD202301933846174B029301A902F07C
:10187800D1F80125002403264023384601A9019305
:1018880002950394049602F0C5F84FF4804301A929
:101898000E48019302950394049602F0BBF80223C4
:1018A80001A90B48019302950394049602F0B2F83B
:1018B80029462246072002F043F8072002F070F874
:1018C80007B0F0BD000800480000311000180048BB
:1018D800001C0048704700004FF4E06210B5C26079
:1018E8004FF400520C4B826248F205020446036032
:1018F800C262002302224360836003614361836103
:10190800036243620263436302F0AEFB226813681A
:1019180043F44073136010BD003800400E4B07B508
:101928009A6C42F001029A649B6C03F001030193E4
:10193800012100220C20019B02F002F80C2002F089
:101948002FF8012100220D2001F0FAFF0D2002F0EE
:1019580027F803B05DF804FB0010024002484FF47A
:10196800005102F0CBB900BF00080048044B9A6B45
:1019780042F480429A639A6B22F480429A637047D9
:101988000010024008B52021034802F0B7F9431EB1
:101998005842584108BD00BF0008004808B506482D
:1019A8004FF48041012202F0AFF9044802210022DD
:1019B800BDE8084002F0A8B900180048001C00481B
:1019C80002464021014802F09FB900BF00080048C4
:1019D80010B50446FFF7E2FF0120FFF7F1FF0D4ABB
:1019E8004FF4827384E80C004FF4E062E26018223E
:1019F8000023E2614FF48022A36023616361A26146
:101A080023626362A36263632046BDE8104002F06C
:101A18002BBB00BF00300140024610214FF0904020
:101A280002F072B902460421014802F06DB900BF04
:101A3800000800480148042102F060B90008004885
:101A48000148012102F05AB90004004802464FF447
:101A58000051014802F058B90008004802484FF404
:101A6800005102F04BB900BF0008004801F044BF24
:101A780070B586B00A4D01230293002306464FF441
:101A8800804403932846032301A90493019401F099
:101A9800C1FF28462146324602F036F906B070BD2D
:101AA800000400487FB54FF40043019300230293DC
:101AB80003930448032301A9049301F0ABFF07B083
:101AC8005DF804FB0004004802484FF4004102F0AE
:101AD80015B900BF000400487FB54FF44043019397
:101AE800022302930023039303230493044805234A
:101AF80001A9059301F08EFF07B05DF804FB00BF54
:101B08000004004810B5142486B0224601A800211C
:101B1800FEF7B6FB4FF4005301930123029301A98A
:101B280003230E48049301F075FF224601A8002103
:101B3800FEF7A6FB4FF48053019301A9084B09480F
:101B4800029301F067FF02210022282001F0F8FE2D
:101B5800282001F025FF06B010BD00BF000800488E
:101B68000000211000040048054B5A68996810B518
:101B780000245C609C6012B1BDE81040104710BDA5
:101B8800D8690020014B5980704700BFD8690020F0
:101B9800154B16481B6870B5154C164DD9686E88DC
:101BA800224603F004FBFFF759FF2246014612487C
:101BB80003F0FDFAFFF73EFF0236014622460F48C2
:101BC80003F0F5FA314622460D4803F0F0FA297B76
:101BD8000C48224603F0EBFA29780B482246BDE868
:101BE800704003F0E4BA00BF74690020316400203B
:101BF800345E0020D86900203C640020476400203F
:101C0800526400205D64002068640020F8B50D4629
:101C18000646FFF72BFF0446B5FA85F04009FFF7A3
:101C280027FFFFF73FFF9EB1FFF74EFF0746FFF77D
:101C380007FF0646FFF71AFF001B1FB916B16328F6
:101C4800F2D914E0154B1A69032A1CBF03221A6142
:101C5800022D03D00120F8BDC728FBD8FFF7F0FEFE
:101C68000546FFF703FF001B002DF5D1F2E7022D13
:101C780006D1FFF7E5FE0546FFF7F8FE001B3DB964
:101C8800064A1369013B002B05DD13610020F8BDEE
:101C9800C728EED9F4E703231361DBE7D8690020EE
:101CA80070B505460020FFF7BDFE0020FFF7CEFE09
:101CB8002A68136843F440731360194B5A7B187BE6
:101CC8001E461AB10221FFF7A1FF00E0012080F0B3
:101CD800010414F0FF04296E124A134808BF347334
:101CE80003F065FAFFF754FF284602F014FAFFF7ED
:101CF8003DFE2846FFF7F0FD4CB90C4D214628461D
:101D080040F60202FEF7BCFA02232C706B700848FA
:101D1800002140F60202FEF7B3FA0123337070BDCA
:101D2800D8690020345E002073640020E27200202D
:101D3800E06A002000487047E6720020014B58888E
:101D4800704700BFD869002008B50B48FFF7C4FDED
:101D58000020FFF767FE0020FFF778FE074B012100
:101D680000221970032119611A7520211A735A73F8
:101D78005A609A60598008BD74690020D8690020AB
:101D880008B50020FFF74EFE0020FFF75FFE03486E
:101D980002F0E2F9BDE80840FFF7E8BD74690020E9
:101DA80010B56FF03F0100F8021C0449012400F847
:101DB800014C0C734A608B60002010BDD86900206C
:101DC800F8B503781A0607463AD4002B33D11D4CD0
:101DD8000279A3710221E171C3781B4EDB073275CA
:101DE80007D501257573A5711AB9184803F0ACF920
:101DF8003575B7F801309AB2B2F5006F23BF0023EA
:101E080023710823A38028BF63713A78104BA188F7
:101E1800B16062F07F029A702268C3F8032062689A
:101E2800C3F807206FF07F021A7001225A70094B1D
:101E38003273736002E0084803F086F90020F8BDA9
:101E48000420F8BDBE660020D86900207F64002009
:101E5800E2720020DD1A0020A564002008B5FFF713
:101E68001FFF4FF0FF30BDE80840FFF77DBE0000C0
:101E78002DE9F04104460020FFF7D4FD0020FFF7CC
:101E8800E5FD22682E4E136843F4407313602D4B12
:101E98001C8804F4C075A5F5C07255425541327DC1
:101EA800012A1F4696BFB4FA84F4C4F34024640997
:101EB80025B9002C0CBF0221012100E00021737B11
:101EC800307B1BB1FFF7A2FE804601E04FF001080E
:101ED80055B13B881C485B0603D57188FFF71CFA8F
:101EE80023E0FFF76DFF20E0337BC3B12846FFF7FF
:101EF80099FD2846FFF7AAFDB8F1000F0BD0134C47
:101F08000F4B2046294640F602021D73FEF7B8F92A
:101F18000223257063700020FFF726FE05E024B930
:101F28000B4803F011F9FFF733FE0648002140F68D
:101F38000202FEF7A5F901233370BDE8F08100BF66
:101F4800D8690020E06A0020E26A0020E2720020DE
:101F5800AE64002038B5224C2378002B3ED0237B7A
:101F6800EBB163881F482049204A1E4D02339BB2BB
:101F780002F0E7F810B12846FFF792FE002323701D
:101F8800FFF7AAFD2A68136823F440731360012041
:101F9800FFF748FD0120BDE83840FFF757BDFFF7C0
:101FA8004FFD01281AD063880E480F490F4A0D4D7E
:101FB80002339BB202F0C5F810B12846FFF770FE55
:101FC80000232370FFF788FD2A68136823F4407301
:101FD80013600120BDE83840FFF724BD38BD00BFBD
:101FE800D869002074690020E2720020E06A0020AD
:101FF800014B002018607047F0690020034B1868F7
:1020080018B1C268836803FB02F07047F0690020CA
:10201800024B186800B14069704700BFF0690020A2
:1020280007B50023ADF8043005238DF8043001A866
:102038000146022200F070FA9DF80530DB07F6D45D
:1020480003B05DF804FB13B501A80623002401467C
:102058000122ADF804408DF8043000F05DFA052344
:10206800ADF804408DF8043001A80146022200F0C2
:1020780053FA9DF805309B07F6D5002002B010BD35
:1020880013B5FFF7E0FF01A86023002401460122F1
:1020980001948DF8043000F03FFAFFF7C1FF2046A5
:1020A80002B010BD37B5002301A802AD0193014667
:1020B8009F2304228DF8043000F02EFA15F8031D32
:1020C8000F48104A104C03F072F828460E490322B4
:1020D80003F0FAFD58B1284604F12401032203F065
:1020E800F3FD18B1094803F02FF803E00120242379
:1020F80003FB0044064B00201C6003B030BD00BF4A
:102108000C650020345E0020C46400202165002096
:10211800F06900200B4B1B685B68032B05D1030C8F
:102128000B70030A4B7088707047042B07D1030E9D
:102138000B70030C4B70030A8B70C8707047024811
:1021480003F002B8F06900203E6500202DE9F04157
:1021580002F10B0323F0070300AF151DADEB030DD0
:10216800144680460E46FFF75BFF2A460021684664
:10217800FEF786F86946032301F8013B4046FFF75E
:10218800C9FF69462A46684600F0C6F9224601A8F2
:10219800314603F099FD044620B10448044A21461B
:1021A80003F005F82046BD46BDE8F0815B650020D8
:1021B800345E00202DE9F047224E33681B690B334B
:1021C80023F0070300AFADEB030D82460D46E8464A
:1021D80001EB02094D4530D233681A6900210432F7
:1021E8004046FEF74DF8FFF72EFF33681C69BAFB2F
:1021F800F4F204FB12A2C5EB090302B1A41A9C4233
:10220800414628BF1C46022301F8013B5046FFF710
:1022180081FF2946224608F1040003F087FD414664
:10222800221D404600F078F93368D86900F0CAF9F1
:10223800A244FFF7F5FE2544CCE70020BD46BDE8E3
:10224800F08700BFF069002073B5154A04464618A8
:10225800144802F0ACFFB4421BD200230193FFF7ED
:10226800F2FE202320460DF105018DF804300E4DB5
:10227800FFF750FF01A80146042200F04DF92B6832
:10228800186A00F09FF9FFF7CBFE2B685B691C44C6
:10229800E1E7064802F058FF002002B070BD00BF19
:1022A8008065002077650020F0690020355E0020F9
:1022B800104B10B50222044601201A60FFF7ACFB50
:1022C800204601F028FF0C4802F03EFF2046FFF7A9
:1022D8007FFB40F60204094802F036FF224600213F
:1022E8000748FDF7CDFF224606480021BDE810400B
:1022F800FDF7C6BFF8690020AC650020BF65002067
:10230800E6820020E47A00200148FFF761BB00BFA5
:10231800006A002000F1700300201A78FE2A03D01A
:102328009A6814331044F8E7014B1860704700BFEF
:10233800F46900202DE9F04F574E03683468ADF575
:10234800805D81B00D4680469847B1460146002819
:1023580040F09C8068464FF48052FDF791FF4F4B48
:1023680004F5805704F50056EE4603F1100C186882
:102378005968724603C2083363459646F7D105F19A
:1023880008030DF1100E05F1180C1868596872460B
:1023980003C2083363459646F7D105F118030DF1DA
:1023A800200E05F1480C18685968724603C20833B4
:1023B80063459646F7D1D8F818309847D8F81C30B6
:1023C800149098474FF480531693354B15901A681C
:1023D80001238DF874301D9918936FF31F211D91F7
:1023E8001E93D9F800C02193FE2302F5085E8DF8EC
:1023F800883002F50072294B1F92CCEB0602CDF80B
:102408005CE020920DF57F6A03F1100B186859689B
:10241800524603C208335B459246F7D1714660467F
:10242800D8F808309847D8F80C30204669464FF459
:1024380080529847D8F81030204669464FF48052A9
:102448009847D8F80C308246694638464FF480528F
:102458009847D8F81030384669464FF48052984764
:10246800D8F80C3040EA0A0729464FF40072304683
:1024780098472946D8F8103030464FF400729847EC
:1024880004F5085447EA0001C9F8004008460DF56C
:10249800805D01B0BDE8F08FFC690020D3650020A5
:1024A800F4690020F8B5084CC368064615460F467F
:1024B800206898472A463369206839469847226831
:1024C8002A442260F8BD00BFFC69002010B504460C
:1024D800054802F039FE63699847044A00231360EF
:1024E800034A136010BD00BFE4650020FC690020AA
:1024F800F4690020014B01221A607047F869002036
:1025080010B50446034802F01FFE2046BDE81040FF
:10251800FFF7CEBE006600202DE9F84380468946C5
:1025280015460026002D3CDD40F602042246002117
:102538001F48FDF7A5FE224600211E48FDF7A0FE14
:10254800AC42A8BF2C4608EB06012246184803F007
:10255800EDFB0020FFF760FA17481549154AA3B2AA
:1025680001F0EFFD18B1154802F0EEFD12E0144F2E
:102578003B68002BFBD0052001F0C4F93B68012B18
:1025880008D109EB06000B49224603F0CFFB2D1BAF
:102598002644C7E70848FFF78BFE6FF00400BDE844
:1025A800F8830120FFF738FA0020BDE8F88300BF60
:1025B800E6820020E47A0020006A00201B660020E2
:1025C800F869002001F09EB937B51E4DAB6DD900F2
:1025D800044602D502F09EFD0EE0AB6D43F0805339
:1025E800AB65AB6D03F080530193019B02F092FD44
:1025F800AB6D23F08053AB65B0F5007F06D1802C1E
:102608000CD9A02C8CBF022301230CE0802C07D806
:1026180008D0A4F170025342534104E0002302E0C1
:10262800032300E0022308490A6822F007021A433C
:102638000A60086800F00700C01A18BF012003B03C
:1026480030BD00BF00100240002002400F4B10496F
:102658001A6842F001021A6000229A601868014064
:102668001960DA60D96841F48051D9601A61196932
:1026780041F4805119615A61596941F48051596195
:10268800196821F4802119609A617047001002408E
:10269800FFF4F6EA0368DB06F7B5054640F1A180CA
:1026A800A04CA36813F00C0F4FD1022393FAA3F2A6
:1026B800226893FAA3F3B3FA83F303F01F0322FA11
:1026C80003F3DF0703D583690BB901206CE32268A4
:1026D800944B286A160755BFD3F894301B6803F447
:1026E800706303F0F00358BF1B09984215D9FFF730
:1026F8006BFF0028E9D1236843F0080323602368AF
:1027080023F0F0022B6A134323606368EA6923F419
:102718007F4343EA0223636013E0236843F008031E
:102728002360236823F0F003034323606368EA69A6
:1027380023F47F4343EA02236360FFF745FF002841
:10274800C3D1002001F0ACF84BE0836973B3236870
:1027580043F00103236001F0CFF80646022393FA01
:10276800A3F2704A216893FAA3F3B3FA83F303F050
:102778001F0321FA03F3D90706D401F0BDF8801B23
:102788006428EBD903200FE3136843F008031360B0
:10279800136823F0F0012B6A0B4313605368E9694F
:1027A80023F47F4343EA012353601AE0236823F0AC
:1027B8000103236001F0A0F80646022393FAA3F26E
:1027C800226893FAA3F3B3FA83F303F01F0322FA00
:1027D80003F3DB0705D501F08FF8801B6428ECD9DB
:1027E800D0E72B68DF0704D42B689E0700F19C8094
:1027F80014E14C4CA36803F00C03082B09D0A36820
:1028080003F00C030C2B17D1E36803F00303032B2D
:1028180012D14FF4003393FAA3F2226893FAA3F388
:10282800B3FA83F303F01F0322FA03F3DC07DBD5C3
:102838006B68002BD8D148E7236823F480332360E2
:10284800236823F48023236001F056F806464FF4EA
:10285800003292FAA2F3334B216892FAA2F2B2FA4A
:1028680082F202F01F0221FA02F2D00707D501F026
:1028780043F841F28833801B9842E8D982E76A68B6
:10288800B2F5803F0AD0B2F5A02F0CD11A6822F415
:1028980080321A601A6842F480221A601A6842F478
:1028A80080321A6008E0196821F4803119601968CB
:1028B80021F480211960CAB101F01EF806464FF4D0
:1028C800003393FAA3F2226893FAA3F3B3FA83F3DB
:1028D80003F01F0322FA03F3D90785D401F00CF89B
:1028E80041F28833801B9842E9D94BE701F004F89C
:1028F80006464FF4003393FAA3F2226893FAA3F33F
:10290800B3FA83F303F01F0322FA03F3DA077FF520
:102918006BAF00F0F1FF41F28833801B9842E8D991
:1029280030E700BF00100240C24CA36803F00C035C
:10293800042B09D0A36803F00C030C2B25D1E36802
:1029480003F00303022B20D14FF4806393FAA3F220
:10295800226893FAA3F3B3FA83F303F01F0322FA6E
:1029680003F3DB0703D5EB68002B3FF4AEAE6268D8
:102978004FF0F85191FAA1F12B69B1FA81F122F0E7
:10298800F8528B401343636048E0EB6853B3236805
:1029980043F48073236000F0AFFF06464FF4806372
:1029A80093FAA3F2A348226893FAA3F3B3FA83F342
:1029B80003F01F0322FA03F3DF0705D400F09CFF9E
:1029C800801B6428EAD9DDE642684FF0F85191FA95
:1029D800A1F12B69B1FA81F122F0F8528B4013432F
:1029E80043601BE0236823F48073236000F084FFB6
:1029F80006464FF4806393FAA3F2226893FAA3F38E
:102A0800B3FA83F303F01F0322FA03F3D80705D5BB
:102A180000F072FF801B6428EBD9B3E62B68190716
:102A280003D42B685A0747D43BE16B69814C0BB33D
:102A3800D4F8943043F00103C4F8943000F05CFFFC
:102A48000646022393FAA3F293FAA3F293FAA3F2A7
:102A5800D4F8942093FAA3F3B3FA83F303F01F0393
:102A680022FA03F3DB07DCD400F046FF801B64285E
:102A7800E7D987E6D4F8943023F00103C4F89430FA
:102A880000F03AFF0646022393FAA3F293FAA3F260
:102A980093FAA3F2D4F8942093FAA3F3B3FA83F346
:102AA80003F01F0322FA03F3DF07BAD500F024FF6F
:102AB800801B6428E7D965E65E4CA36DDE005FBF26
:102AC800A36D43F08053A365A36D5EBF03F08053ED
:102AD8000193019B584B1A6854BF01260026D00564
:102AE8000FD5D4F8903023F00103C4F89030D4F80F
:102AF800903023F00403C4F8903000F0FDFE074640
:102B08002EE01A6842F480721A6000F0F5FE07465B
:102B1800494B1B68D905E4D400F0EEFEC01B6428BD
:102B2800F6D92FE693FAA3F3B3FA83F343F04003FD
:102B38005B09032B0CBFD4F89420E269022393FAB3
:102B4800A3F3B3FA83F303F01F03DA40D20716D5D1
:102B580000F0D2FE41F28833C01B98423FF612AE15
:102B6800022393FAA3F293FAA3F2B2FA82F242F0A2
:102B7800400252099A42D5D1D4F89020DEE7AB68DA
:102B8800012B1ED07BB9D4F8903023F00103C4F890
:102B98009030D4F8903023F00403C4F8903000F05B
:102BA800ABFE074652E0052BD4F8903023F0010322
:102BB800C4F89030D4F8903008D143F00403C4F836
:102BC8009030D4F8903043F0010301E023F004037F
:102BD800C4F8903000F090FE0746022393FAA3F25F
:102BE80093FAA3F2B2FA82F242F0400252099A42F0
:102BF80002D1D4F890200BE093FAA3F3B3FA83F34D
:102C080043F040035B09032B0CBFD4F89420E2691E
:102C1800022393FAA3F3B3FA83F303F01F03DA4012
:102C2800D3072BD400F068FE41F28833C01B9842CA
:102C3800D3D9A7E5001002400070004000F05CFE08
:102C480041F28833C01B98423FF69CAD022393FAA9
:102C5800A3F293FAA3F2B2FA82F242F040025209C6
:102C68009A4211D1D4F89020022393FAA3F3B3FA2D
:102C780083F303F01F03DA40D007DFD48EB1A36DCE
:102C880023F08053A3650CE093FAA3F3B3FA83F31C
:102C980043F040035B09032B0CBFD4F89420E2698E
:102CA800E2E76A6A0AB900207EE0404CA36803F0B4
:102CB8000C030C2B3FF409AD2368022A23F0807320
:102CC80023604FD100F018FE06464FF0007393FAC8
:102CD800A3F23648226893FAA3F3B3FA83F303F016
:102CE8001F0322FA03F3D90705D500F005FE801B60
:102CF8006428EAD946E5296BAB6A6A6B43EA012383
:102D0800E96A013943EA0113120943EA4241AB6B0C
:102D18005B08013B41EA4352EB6B5B08013B42EA2B
:102D28004363C360036843F080730360C36843F080
:102D38008073C36000F0E0FD05464FF0007393FA1E
:102D4800A3F2226893FAA3F3B3FA83F303F01F0301
:102D580022FA03F3DA07A6D400F0CEFD401B64285C
:102D6800EBD90FE5E36823F00303E360E36823F09E
:102D7800887323F48033E36000F0BEFD05464FF00E
:102D8800007393FAA3F2226893FAA3F3B3FA83F3D6
:102D980003F01F0322FA03F3DB0784D500F0ACFD30
:102DA800401B6428EBD9EDE403B0F0BD00100240ED
:102DB800F8B58F4B1A6802F00702914204460E4696
:102DC80040F287801A6804299CBF22F007020A4350
:102DD8001A601B6803F007038B4201D00120F8BD7D
:102DE80001688A0741BF8348836823F0F002A3681B
:102DF80044BF13438360CB070BD421684F0740F1CE
:102E0800E6807C48836823F4E062E36813438360C8
:102E1800DDE06268774D022A02D14FF4003309E001
:102E2800032A02D14FF0007304E00AB9022301E03B
:102E38004FF4806393FAA3F1296893FAA3F3B3FAE2
:102E480083F303F01F0321FA03F3DE07C6D5AB684B
:102E580023F003031A43AA6000F04EFD6368022BB7
:102E680006460DD1AB6803F00C03082BC5D000F063
:102E780043FD41F28833801B9842F3D90320F8BD03
:102E8800032B0CD1AB6803F00C030C2BB5D000F06E
:102E980033FD41F28833801B9842F3D9EEE793B9AA
:102EA800AB6813F00C0FA8D000F026FD41F2883370
:102EB800801B9842F4D9E1E700F01EFD41F2883307
:102EC800801B9842DAD8AB6803F00C03042BF3D1CB
:102ED80093E701688D0741BF4648836823F0F002F5
:102EE800A36844BF13438360C80707D4042E404A2D
:102EF80064D8136823F00703334360E062683D4DEC
:102F0800022A02D14FF4003308E00AB9022305E08F
:102F1800032A0CBF4FF000734FF4806393FAA3F1B8
:102F2800296893FAA3F3B3FA83F303F01F0321FA92
:102F380003F3D9077FF552AFAB6823F003031A43B5
:102F4800AA6000F0D9FC6368022B07460CD1AB6875
:102F580003F00C03082BC9D000F0CEFC41F28833F3
:102F6800C01B9842F3D989E7032B0CD1AB6803F057
:102F78000C030C2BBAD000F0BFFC41F28833C01B05
:102F88009842F3D97AE79BB9AB6813F00C0FADD030
:102F980000F0B2FC41F28733C01B9842F4D96DE7C8
:102FA80000F0AAFC41F28833C01B98423FF666AF96
:102FB800AB6803F00C03042BF2D197E71368136096
:102FC800136803F00703B3427FF408AF15E70B0754
:102FD80041BF084A2169936823F4605344BF43EA18
:102FE800C1039360002000F05BFC0020F8BD00BF27
:102FF80000200240001002402F498B6803F00C03A8
:10300800042B10B528D08B6803F00C03082B25D0AF
:103018008B6813F00C0F09D08B6803F00C030C2B92
:103028001FD1CB6803F00303012B1AD10A68224B86
:10303800120754BFD3F894301B68204A54BFC3F317
:103048000323C3F3031352F823408B6813F00C0FC8
:103058000CBF2046002006E0194800E0194800246B
:1030680001E0002004468A68134B02F00C020C2A87
:1030780021D1DA68D86802F00302C0F30210022AEC
:1030880000F1010004D0032A07D1DA680D4B01E0F2
:10309800DA680B4BB3FBF0F002E0DA68B4FBF0F04F
:1030A800C2F3062202FB00F3C868C0F34160013096
:1030B8004000B3FBF0F010BD00100240B45E0020E9
:1030C8000024F40000127A0008B5FFF795FF084BBA
:1030D800F0229B6892FAA2F203F0F003B2FA82F2AD
:1030E800D340044AD35CD840034B186008BD00BFE6
:1030F80000100240A45E0020B866002008B5FFF763
:10310800E3FF074B4FF4E0629B6892FAA2F203F4E4
:10311800E063B2FA82F2D340024AD35CD84008BDD9
:10312800001002405166002008B5FFF7CDFF074B9D
:103138004FF460529B6892FAA2F203F46053B2FA19
:1031480082F2D340024AD35CD84008BD0010024046
:103158005166002070B5294C236823F080632360F2
:10316800054600F0C9FB06464FF0006292FAA2F34A
:10317800224B216892FAA2F2B2FA82F202F01F02FE
:1031880021FA02F2D20707D500F0B6FB801BB0F592
:103198007A7FE9D9032070BD1A69296822F4FE42B2
:1031A80042EA01221A611A69696822F4003209099F
:1031B80042EA41421A6119692A690A431A611A687E
:1031C80042F080621A6000F097FB05464FF00063FA
:1031D80093FAA3F2226893FAA3F3B3FA83F303F002
:1031E8001F0322FA03F3DB0706D400F085FB401B1C
:1031F800B0F57A7FEAD9CDE7002070BD0010024013
:1032080070B5294C236823F080532360054600F0ED
:1032180073FB06464FF0005292FAA2F3224B216844
:1032280092FAA2F2B2FA82F202F01F0221FA02F234
:10323800D20707D500F060FB801BB0F57A7FE9D98B
:10324800032070BD5A69296822F4FE4242EA01222D
:103258005A615A69696822F40032090942EA41420E
:103268005A615969EA680A435A611A6842F08052F9
:103278001A6000F041FB05464FF0005393FAA3F2A1
:10328800226893FAA3F3B3FA83F303F01F0322FA35
:1032980003F3DB0706D400F02FFB401BB0F57A7F61
:1032A800EAD9CDE7002070BD0010024070B52A4C65
:1032B800236823F080632360054600F01DFB064663
:1032C8004FF0006292FAA2F3234B216892FAA2F21D
:1032D800B2FA82F202F01F0221FA02F2D20707D5EF
:1032E80000F00AFB801BB0F57A7FE9D9032070BD96
:1032F8001A69296822F4FE4242EA01221A61A96881
:103308001A694908013922F4C00242EA41521A6195
:1033180019692A690A431A611A6842F080621A60B8
:1033280000F0EAFA05464FF0006393FAA3F2226828
:1033380093FAA3F3B3FA83F303F01F0322FA03F318
:10334800DB0706D400F0D8FA401BB0F57A7FEAD93B
:10335800CCE7002070BD00BF001002402DE9F34704
:10336800056815F40065044627D0436DB3F5800F52
:1033780012D004D803BB0430FFF7ECFE0FE0B3F51E
:10338800000F03D0B3F5400F0BD015E06B4AD3689C
:1033980043F48033D36004E01830FFF731FF05466B
:1033A80058B96649D1F8883023F44002636D134355
:1033B800C1F88830002500E001252368D90429D503
:1033C800A36DB3F1807F12D004D813BB201DFFF783
:1033D800C1FE10E0B3F1007F03D0B3F1407F0CD001
:1033E80017E0564AD36843F48033D36005E004F10C
:1033F8001800FFF705FF074600E02F4667B94F4959
:10340800D1F8883023F04072A36D1343C1F8883097
:1034180003E001252F4600E03D4623689A0340F16A
:103428009280464E626FD6F8903003F44073934210
:1034380000F08880B36D424ADB005FBFB36D43F094
:103448008053B365B36D5EBF03F080530193019B56
:10345800136843F48073136054BF4FF001084FF0B2
:10346800000800F049FA8246354B1B6813F480794E
:1034780008D100F041FACAEB00006428F4D9032708
:103488004B4614E097B9D6F89030D6F8902042F41D
:103498008032C6F89020D6F8902023F4407322F4A6
:1034A8008032C6F89020C6F8903000E000239807D4
:1034B80001D497B346E000F01FFA8146022393FA3D
:1034C800A3F293FAA3F2B2FA82F242F0400252094E
:1034D8009A4202D1D6F890200BE093FAA3F3B3FAFC
:1034E80083F343F040035B09032B0CBFD6F8942009
:1034F800F269022393FAA3F3B3FA83F303F01F03E9
:10350800DA40D107D5D400F0F7F941F28833C9EB96
:1035180000009842D2D9032515E0D6F89030074923
:1035280023F44072636F1343C6F89030B8F1000F6C
:1035380009D08B6D23F080538B6504E000100240A6
:10354800007000403D462368DA0741BF9248D0F832
:10355800882022F00301A26A44BF0A43C0F88820E9
:103568009F0741BF8C48D0F8882022F00C01E26AFE
:1035780044BF0A43C0F888205E0741BF8648D0F898
:10358800882022F03001226B44BF0A43C0F888200B
:10359800180741BF8048D0F8882022F0C001626B2C
:1035A80044BF0A43C0F88820D90641BF7A48D0F8FA
:1035B800882022F44071A26B44BF0A43C0F88820D7
:1035C8009A0641BF7448D0F8882022F44061E26B23
:1035D80044BF0A43C0F888209F0541BF6E48D0F811
:1035E800882022F44021E26C44BF0A43C0F88820B6
:1035F8005E0541BF6848D0F8882022F44011226D4A
:1036080044BF0A43C0F88820580641BF6248D0F832
:10361800882022F44051226C44BF0A43C0F8882015
:10362800190641BF5C48D0F8882022F44041626CFA
:1036380044BF0A43C0F88820DA0541BF5648D0F88D
:10364800882022F44031A26C44BF0A43C0F8882085
:103658009F0419D5504AE16DD2F8883023F04063B1
:103668000B43B1F1006FC2F8883004D1D36843F43A
:103678008013D36008E0B1F1806F05D1201DFFF7FA
:1036880015FE002818BF054623681E0319D5424AAF
:10369800216ED2F8883023F040630B43B1F1006FFC
:1036A800C2F8883004D1D36843F48013D36008E0AB
:1036B800B1F1806F05D1201DFFF7F8FD002818BF74
:1036C80005462368580319D5334A616ED2F8883005
:1036D80023F040630B43B1F1006FC2F8883004D186
:1036E800D36843F48013D36008E0B1F1806F05D14B
:1036F800201DFFF7DBFD002818BF05462368590485
:103708007CD5254EA26ED6F8883023F0405313435B
:10371800B2F1805FC6F888301DD1336823F080632A
:10372800336000F0E9F807464FF0006292FAA2F31E
:10373800194B316892FAA2F2B2FA82F202F01F0231
:1037480021FA02F2D20729D500F0D6F8C01BB0F54D
:103758007A7FE9D952E0B2F1005F4FD1336823F0A4
:103768008053336000F0C8F807464FF0005292FAD1
:10377800A2F3094B316892FAA2F2B2FA82F202F08D
:103788001F0221FA02F2D00751D500F0B5F8C01B8C
:10379800B0F57A7FE9D97AE0001002401A696168C9
:1037A80022F4FE4242EA01221A6121691A69490893
:1037B800013922F0C06242EA41621A6119696269FC
:1037C8000A431A611A6842F080621A6000F094F89D
:1037D80007464FF0006393FAA3F2326893FAA3F313
:1037E800B3FA83F303F01F0322FA03F3DB0705D4CC
:1037F80000F082F8C01BB0F57A7FEAD921680A0484
:1038080041BF2648D0F8883023F08042E36E44BF99
:103818001343C0F88830CB033BD52049D1F8883012
:1038280023F00042236F1343C1F8883031E05A690E
:10383800A16922F4FE4242EA01225A61216A5A69C8
:103848004908013922F0C06242EA41625A61596965
:10385800626A0A435A611A6842F080521A6000F09C
:103868004BF807464FF0005393FAA3F2326893FAE5
:10387800A3F3B3FA83F303F01F0322FA03F3D90780
:10388800BCD400F039F8C01BB0F57A7FEAD903251B
:10389800B4E7284602B0BDE8F08700BF0010024038
:1038A80010B50446FFF710FC4FF47A73B0FBF3F041
:1038B80000F094F84FF0FF302146002200F040F865
:1038C800002010BD074A08B5136843F480731360DD
:1038D800032000F023F80020FFF7E2FFFCF7DEFEEC
:1038E800002008BD00200240024A1368013313601B
:1038F800704700BF646A0020014B1868704700BF1A
:10390800646A002038B50446FFF7F6FF0546FFF75E
:10391800F3FF401BA042FAD338BD0000074AD36822
:1039280023F4E0631B041B0C43F0BF6343F4003330
:1039380000F0070043EA0023D360704700ED00E081
:10394800154BDB68C3F3022370B5C3F107051C1DD3
:10395800042D28BF0425062C8CBF033B002301241B
:1039680004FA03F6AC40013C013E21409940324044
:10397800002842EA01024FEA0212AFBF00F160409C
:1039880000F00F00054BD2B2A5BF00F56140D2B2DE
:103998001A5480F8002370BD00ED00E014ED00E03B
:1039A8004109012300F01F00024A834042F82130F8
:1039B800704700BF00E100E0BFF34F8F0549064B99
:1039C800CA6802F4E0621343CB60BFF34F8F00BFB5
:1039D800FDE700BF00ED00E00400FA050138B0F192
:1039E800807F3FBF064B074A5860F0213FBF82F8EF
:1039F800231000200722986034BF1A600120704706
:103A080010E000E000ED00E0704708B5FFF7FCFFAC
:103A180008BD00002DE9F3470F68002337FA03F2C9
:103A280000F0CC8001259D4015EA070E00F0C48007
:103A38004C6824F01006022E16D14FEAD30C00EB86
:103A48008C0C03F00708DCF820204FEA88084FF0B8
:103A58000F0909FA08F922EA09090A6902FA08F2BB
:103A680049EA0202CCF820204FEA430C0322D0F89E
:103A7800009002FA0CF2D24304F0030802EA090AA1
:103A8800013E08FA0CF94AEA0909012EC0F800902B
:103A980011D8866802EA0609CE6806FA0CF649EAE1
:103AA80006068660466826EA0509C4F300169E40A5
:103AB80049EA06064660B8F1030F01BFC66A26EA5E
:103AC8000508C4F3C00505FA03F604BF48EA06056D
:103AD800C562C66816408A6802FA0CF546EA05020D
:103AE800C260E20068D5374A156E45F001051566D3
:103AF800126E23F0030505F1804502F0010205F579
:103B08008035019203F0030C019AAE684FEA8C0CE1
:103B18000F2202FA0CF2B0F1904F26EA020619D0F1
:103B2800294A904218D002F58062904216D002F5D8
:103B38008062904214D002F58062904212D002F561
:103B48008062904210D002F5806290420CBF06223B
:103B580007220AE0002208E0012206E0022204E02F
:103B6800032202E0042200E0052202FA0CF23243AA
:103B7800AA60164A156814F4803F6FEA0E060CBF57
:103B880035404EEA05051560556814F4003F0CBF32
:103B980035404EEA05055560956814F4801F0CBF42
:103BA80035404EEA05059560D568A40254BF06EA7B
:103BB80005044EEA0504D46001332FE702B0BDE8DE
:103BC800F08700BF001002400004004800040140D4
:103BD8002DE9F043002231FA02F300F084804FF01F
:103BE800010C0CFA02F414EA01057AD006680323E2
:103BF80002FA0CF703FA07F922FA03FE00EB8E0E1D
:103C080049EA0606066002F00708DEF820700F266B
:103C18004FEA880806FA08F827EA0807CEF820705D
:103C2800D0F808E06FEA090707EA0E0EC0F808E0C6
:103C3800D0F804E0E44304EA0E0EC0F804E0D0F83B
:103C48000CE007EA0E07C760C76A3C40C46222F06E
:103C5800030404F1804404F5803402EA0307D4F82D
:103C680008E0BF00BE40B0F1904F06EA0E0E19D032
:103C7800DFF88080404517D0DFF87CC0604515D05C
:103C88000CF5806C604516D0184B984210D003F59F
:103C9800806398420ED003F5806398420CBF0623D8
:103CA800072308E0002306E0634604E0022302E05D
:103CB800042300E00523BB409E4512D1A36823EAF4
:103CC80006060B4BA6601E68EC4304EA06051D6059
:103CD8005D6825405D609D6825409D60DD682C40DD
:103CE800DC60013277E7BDE8F08300BF00100048D0
:103CF8000004014000040048000800480369194214
:103D080014BF0120002070470AB1816170478162A9
:103D18007047000008B5044B5969084202D0586141
:103D2800FCF756FC08BD00BF000401402DE9F34133
:103D380004460F4616461D46FFF7DEFD80462168FD
:103D48008A683A40B2423DD0B7F5C06F06D12EB965
:103D58000B7BDBB28DF807309DF807306B1CEFD07A
:103D68004DB923685A6822F0E0025A606268B2F5D9
:103D7800827F12D106E0FFF7BFFDC8EB0000A84222
:103D8800DDD3EEE7A268B2F5004F02D0B2F5806F3E
:103D980003D11A6822F040021A60A26AB2F5005FE5
:103DA80008D119684DF6FF720A401A601A6842F481
:103DB80000521A60012384F85D30002384F85C30D7
:103DC800032000E0002002B0BDE8F0812DE9F041B9
:103DD80004460F4616461D46FFF78EFD80462368AB
:103DE8009A683A40B24234D06A1CF9D04DB9236877
:103DF8005A6822F0E0025A606268B2F5827F12D1F6
:103E080006E0FFF779FDC8EB0000A842E7D3EEE72C
:103E1800A268B2F5004F02D0B2F5806F03D11A68DC
:103E280022F040021A60A26AB2F5005F08D1196850
:103E38004DF6FF720A401A601A6842F400521A607E
:103E4800012384F85D30002384F85C300320BDE84A
:103E5800F0810020BDE8F08138B50D4600224FF40E
:103E6800C0512B460446FFF761FF024628B9204699
:103E780080212B46FFF7AAFF20B1236E43F02003D1
:103E88002366032038BD4368B3F5827F70B50446C6
:103E98000E460BD18368B3F5004F02D0B3F5806F9F
:103EA80004D12268136823F0400313602046802160
:103EB80000223346FFF78AFF054690B96368B3F5D9
:103EC800827F13D1A368B3F5004F02D0B3F5806F9A
:103ED8000CD120464FF4C06100223346FFF726FF7D
:103EE80020B1236E43F0200323660325284670BDC6
:103EF80038B50446012084F85C0094F85D00012878
:103F08000BD06568B5F5827F40F09C80A568002DD0
:103F180040F09880042840F09580002900F09480B3
:103F2800002A00F09180002B00F08E800428226483
:103F3800A26AA1631CBF052084F85D000020B2F5C9
:103F4800005F2066A387E387A4F84430A4F84630CE
:103F5800216808D108684DF6FF7202400A600A68B5
:103F680042F400520A604A68A06D22F4C0424A60D6
:103F7800E268B2F5E06F04D94B6823F480534B60D4
:103F88002FE04A6842F480524A60626D9269B2F545
:103F9800806F0ED14D6813F0010F4FEA53020DBF29
:103FA80025F4804545F4804501324D6018BF4D60C9
:103FB800E2878269B2F5806F13D14A6822F4805291
:103FC8004A604A6813F0010F4FEA53030DBF22F409
:103FD800005242F4005201334A6018BF4A60A4F804
:103FE800463094F85D301B4D4563042B0BBF1A4BCC
:103FF8001A4B036303630CBF194B1A4BC3624B681C
:10400800226C43F001034B600C31B4F8463000F0E9
:104018003BFC606D2268456300230363C3620C3276
:10402800E38FA16B00F030FC23681A6852065EBF6C
:104038001A6842F040021A605A6842F002025A6056
:10404800002002E0022000E00120002384F85C3018
:1040580038BD00BFF3400020DD400020E9400020CB
:1040680015410020D741002070B50446002850D0E3
:1040780090F85D301BB980F85C30FCF729FB2168AB
:10408800E268022384F85D300B68B2F5E06F23F034
:1040980040030B604FF0000303D91846B2F5706F68
:1040A80001E04FF4805018BFA362236B2BB9B2F51F
:1040B800E06F8CBF0223012323636568A668A369A8
:1040C8002E4325692E4365692E43E5692E43256AEB
:1040D8002E43A56A2E4303F4007535430D60256B06
:1040E800022D02BF0D6845F400650D60656A2A431C
:1040F800656B1B0C154303F0040245EA02030343F6
:104108004B60E36A0B6100200123206684F85D3070
:1041180070BD012070BD10B5044680B1026802234D
:1041280080F85D30136823F040031360FCF78EFBC2
:104138000020206684F85D0084F85C0010BD012032
:1041480010BD10B590F85C40012C03D0BDE81040BC
:10415800FFF7CEBE022010BD10B50446406D08B171
:1041680000F0B7FBA06D08B100F0B3FB22685368FC
:1041780023F003035360012384F85D30002010BD51
:104188007047704708B5806AFFF7FBFF08BD7047A6
:1041980008B5806AFFF7FBFF08BD806A026808B5AA
:1041A800536823F003035360036E43F01003036660
:1041B800012380F85D30FCF71DFA08BD03681B6811
:1041C8009A0613B5846A55D4A36AB3F5005F2BD158
:1041D800012120460A463223FFF7F8FD18B1236E65
:1041E80043F002032366E368B3F5E06F236802D95E
:1041F800DB689BB214E01B7BADF80630BDF80630D7
:10420800236B022B10D1012120460A463223FFF7E7
:10421800DDFD18B1236E43F00203236623681B7B80
:10422800ADF80630BDF806302268536823F0030362
:10423800536020463221FFF726FE18B1236E43F063
:104248002003236600232268A4F84630012384F85B
:104258005D309368DB0641BF236E43F0020323669B
:104268004FF6EF7348BF9360236E1BB12046FCF7EF
:10427800C1F902E02046FFF783FF02B010BD0368D2
:104288001B6813B59906846A56D4A36AB3F5005F10
:1042980027D1E368B3F5E06F20464FF4C0610FD132
:1042A800236B012B0CD14FF400723223FFF73EFD34
:1042B80018B1236E43F00203236623681B7B0CE0CE
:1042C8004FF480623223FFF731FD18B1236E43F0BB
:1042D800020323662368DB689BB2ADF80630BDF89D
:1042E800063020463221FFF7B7FD08B120232366A8
:1042F80023685A6822F003025A600022E287A4F871
:104308004620012284F85D209A68D20641BF226EB9
:1043180042F0020222664FF6EF7248BF9A609B682D
:10432800DB0742BF236E43F040032366236E1BB1B5
:104338002046FCF75FF902E02046FCF773F902B06B
:1043480010BD000030B5002800F0A78090F8253097
:1043580003F0FF020BB980F824208568C16845EA9C
:10436800010401690C43416902230C43816980F807
:10437800253003680C43C1691A680C43016A22F4AA
:104388007F5222F0300221430A43B5F5804F1A606C
:104398007CD0434A934201D1424B21E0424A9342A6
:1043A80001D1404B28E0414A934201D13D4B30E0D6
:1043B8003F4A934201D13B4B38E03E4A934201D1F8
:1043C800384B40E03C4A934201D1364B48E03B4AE7
:1043D800934201D1334B50E0394A934208D1394BCB
:1043E8001A6822F00F021A60196842680A434CE002
:1043F800354A934209D1334B1A6822F0F0021A6009
:104408001A68416842EA01123FE0304A934209D1F2
:104418002C4B1A6822F470621A601A68416842EAE2
:10442800012232E02A4A934209D1264B1A6822F423
:1044380070421A601A68416842EA013225E0254A4A
:10444800934209D11F4B1A6822F470221A601A6825
:10445800416842EA014218E01F4A934209D1194BC8
:104468001A6822F470021A601A68416842EA015216
:104478000BE01A4A934209D1124B1A6822F0706273
:104488001A601A68416842EA01621A600023012230
:10449800836380F82520184630BD012030BD00BF59
:1044A80008000240A80002401C0002403000024000
:1044B80044000240580002406C0002408000024064
:1044C80008040240A80402401C04024030040240D0
:1044D80044040240580402406C0402408004024034
:1044E800F0B5002800F0BF8190F82530022B00F0CD
:1044F800BA810368AF4D1A68AF4C22F001021A6006
:10450800AB424FF000021A605A609A60DA602ED906
:1045180002F18042A94E02F50132B342576813D026
:10452800A7498B4212D014318B4211D014318B42DF
:1045380011D014318B4211D014318B420CBF4FF47F
:1045480080114FF080710BE0012109E0102107E094
:104558004FF4807104E04FF4805101E04FF4803152
:1045680039435160B34257682DD1022149E0954A39
:10457800A342516813D01C32934212D01432934292
:1045880011D01432934211D01432934211D0143204
:1045980093420CBF4FF480124FF080720BE001225F
:1045A80009E0102207E04FF4807204E04FF48052D3
:1045B80001E04FF480320A438249A3424A604968C5
:1045C80026D1022242E07E498B4210D014318B4220
:1045D8000FD014318B420FD014318B420FD01431CD
:1045E8008B420CBF4FF400114FF0007109E02021FD
:1045F80007E04FF4007104E04FF4005101E04FF47C
:10460800003139435160B342576827D1082143E04C
:104618006D4A934210D0143293420FD01432934211
:104628000FD0143293420FD0143293420CBF4FF480
:1046380000124FF0007209E0202207E04FF40072E8
:1046480004E04FF4005201E04FF400320A435D49A0
:10465800A3424A60496826D1082242E058498B4261
:1046680010D014318B420FD014318B420FD014313B
:104678008B420FD014318B420CBF4FF400014FF026
:10468800006109E0802107E04FF4006104E04FF485
:10469800004101E04FF4002139435160B3425768AB
:1046A80027D1042143E0484A934210D01432934260
:1046B8000FD0143293420FD0143293420FD01432D9
:1046C80093420CBF4FF400024FF0006209E08022D1
:1046D80007E04FF4006204E04FF4004201E04FF4B9
:1046E80000220A433749A3424A60496822D104227A
:1046F8003EE033498B4210D014318B420FD0143135
:104708008B420FD014318B420FD014318B420CBF27
:104718004FF480014FF0806109E0402107E04FF439
:10472800806104E04FF4804101E04FF48021394377
:10473800516020E0244A934210D0143293420FD0A3
:10474800143293420FD0143293420FD01432934252
:104758000CBF4FF480024FF0806209E0402207E06E
:104768004FF4806204E04FF4804201E04FF480226D
:104778000A4314494A60A34204D1144A136823F037
:104788000F0314E0104A934237D0114A93423ED0A7
:10479800104A934243D0104A934248D00F4A93425A
:1047A8004DD0AB421CD1094A136823F070631360E3
:1047B80051E000BF800002400800024008040240A7
:1047C8001C040240000002401C000240A8000240F5
:1047D8003000024044000240580002406C00024091
:1047E800224A934206D1D2F8A03023F00F03C2F830
:1047F800A03030E01E4A934206D1D2F88C3023F024
:10480800F003C2F88C3026E01A4A934204D1936F21
:1048180023F4706393671EE0174A934204D1536EE2
:1048280023F47043536616E0144A934204D1136D7F
:1048380023F4702313650EE0114A934204D1D36B1D
:1048480023F47003D36306E00E4A934202BF936ACF
:1048580023F0706393620023836380F8243080F828
:1048680025301846F0BD0120F0BD00BF0804024005
:104878001C04024030040240440402405804024030
:104888006C0402408004024030B590F82440012CAA
:104898004FF002041BD080F825400468012580F8F9
:1048A8002450256825F00105256063608368102B76
:1048B8000BBFA260A160E160E260236843F00E03D1
:1048C8002360236843F001032360002030BD2046A5
:1048D80030BD026838B5136823F00103136004463D
:1048E800FFF70AF805462368186810F0010010D091
:1048F800FFF702F8401BB0F57A7FF4D9A36B43F0B9
:104908002003A3630320002384F8250084F82430BF
:1049180038BD012384F8253084F8240038BD000010
:1049280070B50368B34DAB42044627D9B24A116843
:104938000832934213D01432934212D01432934265
:1049480011D01432934211D01432934211D0143240
:1049580093420CBF4FF400024FF000620BE00822B4
:1049680009E0802207E04FF4006204E04FF40042BF
:1049780001E04FF400220A4228D192E09F4A1168D0
:104988000832934213D01432934212D01432934215
:1049980011D01432934211D01432934211D01432F0
:1049A80093420CBF4FF400024FF000620BE0082264
:1049B80009E0802207E04FF4006204E04FF400426F
:1049C80001E04FF400220A4200F093801A681207AF
:1049D80064D51A68AB4222F008021A6028D98849BF
:1049E800854A8B425068114613D01C32934212D02C
:1049F8001432934211D01432934211D0143293429C
:104A080011D01432934214BF4FF000634FF40003E7
:104A18000BE0082309E0802307E04FF4006304E07B
:104A28004FF4004301E04FF4002303434B6027E0B9
:104A3800724A51680832934213D01432934212D00A
:104A48001432934211D01432934211D0143293424B
:104A580011D01432934214BF4FF000634FF4000397
:104A68000BE0082309E0802307E04FF4006304E02B
:104A78004FF4004301E04FF40023604A0B435360B6
:104A8800A36B43F00103A363042384F825300023B8
:104A980084F82430636B0BB1204698472368AB42F7
:104AA80027D9554A11680832934213D014329342D9
:104AB80012D01432934211D01432934211D01432CE
:104AC800934211D0143293420CBF4FF480024FF03E
:104AD80080620BE0042209E0402207E04FF4806284
:104AE80004E04FF4804201E04FF480220A4227D1CB
:104AF80039E1424A11680832934213D01432934282
:104B080012D01432934211D01432934211D014327D
:104B1800934211D0143293420CBF4FF480024FF0ED
:104B280080620BE0042209E0402207E04FF4806233
:104B380004E04FF4804201E04FF480220A4237D06B
:104B48001A6856072FD51A68900603D41A6822F0F7
:104B580004021A60AB426FD92949274A8B42506830
:104B6800114600F09D80274A934200F08E8014324F
:104B7800934200F08C801432934200F08B80143200
:104B8800934200F08A80143293420CBF4FF48003A2
:104B98004FF0806303434B60112384F82530236B67
:104BA8000BB1204698472368AB4202D9124A01E06C
:104BB8002368124A11680832934213D01432934280
:104BC80012D01432934211D0143293421CD01432B2
:104BD80093421CD0143293420CBF4FF400124FF092
:104BE800007216E0022214E0202212E04FF4007254
:104BF8000FE000BF800002400004024000000240B5
:104C0800080402401C0402404FF4005201E04FF433
:104C180000320A4214BF01220022002A00F0A580B7
:104C28001A68910740F1A1801A6892063AD41A6866
:104C380022F002021A6035E04C4A51680832934269
:104C480013D01432934212D01432934211D014323A
:104C5800934211D01432934211D0143293420CBFB4
:104C68004FF480034FF080630BE0042309E04023F6
:104C780007E04FF4806304E04FF4804301E04FF411
:104C880080233A4A0B43536086E7402382E74FF478
:104C980080637FE74FF480437CE74FF4802379E714
:104CA800042377E7AB4235D8304A5168083293423B
:104CB80013D01432934212D01432934211D01432CA
:104CC800934211D01432934211D0143293420CBF44
:104CD8004FF400134FF000730BE0022309E0202388
:104CE80007E04FF4007304E04FF4005301E04FF481
:104CF80000331E4A0B435360A36BA363012384F85C
:104D08002530002384F82430E36A73B32046BDE8D5
:104D1800704018471649174A8B425068114620D0F0
:104D2800154A934210D0143293420FD01432934252
:104D38000FD0143293420FD0143293420CBF4FF469
:104D480000134FF0007309E0202307E04FF40073CD
:104D580004E04FF4005301E04FF4003303434B6089
:104D6800CAE70223FAE7236820E770BD0000024083
:104D780008040240000402401C040240324B1A6935
:104D8800920741BF31494A6842F001024A601B69F3
:104D98001B0741BF2D4A536843F0020353602A4B57
:104DA8001A69D00641BF29494A6842F004024A609C
:104DB8001B69990641BF254A536843F008035360AD
:104DC800214B1A69520641BF20494A6842F0100235
:104DD8004A601B691B0641BF1C4A536843F0200305
:104DE8005360194B1A69D00541BF18494A6842F007
:104DF80040024A601B69990541BF144A536843F051
:104E080080035360104B1A69520441BF0F494A6826
:104E180042F480724A601B691B0441BF0B4A536805
:104E280043F400735360084B9A69002ABFBF0749CF
:104E38004A6842F480624A609A6942F000429A6184
:104E48004CF2FA321A61704700200240608B002051
:104E5800D0B50A4C626942F480220B46626172B690
:104E680001F58074D3E90067421A1A440833A34253
:104E7800C2E90067F6D162B6D0BD00BF002002408B
:104E8800064B5A69002ABFBF054A9A6002F1883268
:104E98000020B4BF9A600120704700BF0020024084
:104EA80023016745034A536943F0004353610020D7
:104EB800704700BF0020024038B50446FEF71CFDCD
:104EC80005191E4B1A69D20307D5611CF9D0FEF7E4
:104ED80013FDA842F5D3032038BD1A6990071FD4E3
:104EE8001A6911071CD41A69D20619D41A699506C9
:104EF80016D41A69540613D41A69100610D41A69FC
:104F0800D1050DD41A6992050AD41B695B0407D42C
:104F18000A4A106910F4004002D19369002B03DAA1
:104F2800FFF72CFF012038BD136913F0010302D0ED
:104F38000123136138BD184638BD00BF0020024068
:104F48002DE9F8431C4D99462B78012B06460F4650
:104F580090462DD001244CF250302C70FFF7ACFF56
:104F680003460BBB6B6046B9144A50692043506135
:104F7800C7F80080C7F804900CE0731E012B01D914
:104F8800002407E038464146FFF762FF022EF7D1BA
:104F98004FF480244CF25030FFF78EFF24B1074ABB
:104FA800536923EA0404546100232B70BDE8F88395
:104FB8000220BDE8F88300BF608B0020002002407B
:104FC800094B10F0010F1EBF5A6942F004025A61E2
:104FD800820742BF5A6942F400425A615A6942F450
:104FE80080325A61704700BF002002400C4B5A695A
:104FF80011F0010F14BF22F4006242F400625A61FA
:105008005A6922F4FF6242EAC00058615A6942F0C4
:1050180002025A615A6942F480325A61704700BFED
:1050280000200240104B1A6891050BD51A6822F42B
:1050380000721A601A6842F400621A601A6842F430
:1050480000721A60084B1A6852050BD51A6822F4C8
:1050580080621A601A6842F480521A601A6842F430
:1050680080621A60704700BF002002402DE9F041BD
:10507800264D2B78012B0646884643D001234CF257
:1050880050302B70FFF718FF0446002835D13368DD
:105098006860012B0FD17068FFF792FF4CF2503017
:1050A800FFF70AFF1A4A536923F4004323F0040365
:1050B800044653611FE04FF0FF33C8F80030B7686B
:1050C800F268B36813449F4215D238467168FFF7F7
:1050D8008DFF4CF25030FFF7EFFE0D4A536923F471
:1050E800FF6323F00203536118B1C8F80070044647
:1050F80001E00137E4E7FFF795FF00232B70204616
:10510800BDE8F0810220BDE8F08100BF608B00207F
:1051180000200240024B186800F4C060704700BFCE
:1051280000700040024A536843F4007353607047AC
:105138000070004080B2034B188540F67F43013B66
:10514800FDD170470048004010B530B1441E14F836
:10515800010F10B1FFF7EEFFF9E710BD10B50446D7
:1051680000110928CCBF57303030FFF7E3FF04F0B7
:105178000F00092804D95730BDE81040FFF7DABFFF
:105188003030BDE81040FFF7D5BF10B50446000E1B
:10519800FFF7E4FFC4F30740FFF7E0FFC4F307207D
:1051A800FFF7DCFFE0B2BDE81040FFF7D7BF38B526
:1051B8000D461446FFF7C8FF2846FFF7E6FF2046CE
:1051C800BDE83840FFF7C0BF7047000038B5044657
:1051D8000568A2682169C3692868114362690A439E
:1051E80042EA03019A4A02400A432A606A6822F4A2
:1051F8004051E2680A436A60964AA16995421CBF19
:10520800226A1143AA6822F430620A43AA60924AC9
:10521800954207D102F558429049D2F8882002F009
:10522800030209E08E4A95420CD102F5E6328D4917
:10523800D2F8882002F00C02B3F5004F8A5C40F0E7
:10524800928053E0884A954210D102F5E432D2F8B0
:10525800882002F03002102A60D002D8002A4ED0EE
:1052680074E0202A54D0302A62D06FE07F4A9542F9
:105278000ED102F5E232D2F8882002F0C002402AAC
:1052880000F09D8026D9802A00F0D880C02A2AE024
:10529800774A954211D102F5E032D2F8882002F41B
:1052A8004072B2F5807F00F08A8013D9B2F5007F92
:1052B80000F0C480B2F5407F15E0664A954245D1BA
:1052C80002F5C832D2F8882002F44062B2F5806F45
:1052D80075D002D8002A6BD035E0B2F5006F00F027
:1052E800AD80B2F5406F00F0A1802CE0082A30D8DC
:1052F800DFE802F0080B112F172F2F2F2100B3F52D
:10530800004F39D1FDF7FAFE0DE0FDF70DFF0AE079
:10531800B3F5004F36D16068564B0FE0B3F5004F38
:1053280036D1FDF769FE40006368B0FBF3F307E090
:10533800B3F5004F34D160684FF48033B3FBF0F31A
:105348009BB2002207E0434A95427ED0B3F5004F56
:105358007BD10122002323F00F002168C3F342030D
:105368000343CB6072E0082A6FD8DFE802F0050833
:105378000B6E116E6E6E1900FDF7C0FE0AE0FDF7A8
:10538800D3FE07E062683C4BB3FBF2F39BB20CE040
:10539800FDF732FE6368B0FBF3F080B2E86005E029
:1053A80062684FF40043B3FBF2F3EB6000224DE078
:1053B800284A9542A3D1FDF7A1FE002305E0254A1E
:1053C8009542ABD1FDF718FE04230028EED06268A1
:1053D80002EB4201884238D3B0EB023F35D8082BA4
:1053E8001BD8DFE803F0051A081A0A1A1A1A14005B
:1053F800FDF784FE03E021480BE0FDF7FDFD0146C3
:10540800626800230002090E00F090F903E04FF4EF
:105418000000B0FBF2F0002200E00122184BA0F5DA
:105428004071994211D82368D8600FE0094A954223
:105438007FF47EAF08234FF40040C8E7054A954241
:105448007FF466AF02230C48C1E70122104638BD3D
:10545800F369FFEF008000400038014066660020D5
:10546800004400405966002000480040004C0040BD
:10547800005000400048E8010024F400000024F433
:10548800FFFC0F00436ADA0710B541BF0468626881
:1054980022F40031826A44BF0A4362609C0741BF1C
:1054A8000468626822F48031C26A44BF0A436260B9
:1054B800590741BF0468626822F48021026B44BF27
:1054C8000A4362601A0741BF0468626822F4004117
:1054D800426B44BF0A436260DC0641BF0468A268AD
:1054E80022F48051826B44BF0A43A260990641BFEF
:1054F8000468A26822F40051C26B44BF0A43A26048
:105508005A0610D50168046C4A6822F480122243B6
:10551800B4F5801F4A6001BF4A6822F4C004426C97
:10552800224308BF4A601B0641BF01684B6823F449
:105538000022836C44BF13434B6010BD2DE9F0413A
:1055480004460E4690461D46FEF7D6F90746B8F1C2
:10555800000F36D12268D3693340B3420ED0691C9C
:10556800F9D07DB1FEF7C8F9C01BA842F2D909E00D
:105578006B1C06D1D3693340B342F9D00020BDE893
:10558800F081CDB923681A6822F080021A601A687F
:1055980022F020021A601A6822F480721A609A684F
:1055A80022F001029A60012384F86930002384F80C
:1055B80068300320BDE8F081FEF79EF9C01BA842C1
:1055C800E0D82268D6E70022036810B5C2661B68D7
:1055D8001907044604D423681B685B0714D509E03F
:1055E8004FF400116FF07E43FFF7A8FF0028F2D0B8
:1055F800032010BD20464FF4800100226FF07E4347
:10560800FFF79CFF0028F3D10123002084F86930BC
:1056180084F8680010BD10B5044660B390F869308E
:1056280003F0FF021BB980F86820FFF7CDFD226860
:10563800022384F86930136823F0010313602046BD
:10564800FFF7C4FD012816D0636A13B12046FFF79F
:1056580019FF23685A6822F490425A609A6822F027
:105668002A029A601A6842F0010220461A60BDE8D0
:105678001040FFF7A8BF012010BD0000104A114BD1
:105688001168994210B519D19388D468D1889BB212
:105698000133A34228BF002389B28B4207D1D188A6
:1056A800013189B2A142D18024BF0021D180044AAE
:1056B8009188146989B29BB26054938010BD00BF71
:1056C800007001203C2D1E0F38B504464518AC4229
:1056D80004D014F8010BFFF7D1FFF8E738BD10B577
:1056E800044600110928CCBF57303030FFF7C6FFF9
:1056F80004F00F0009288CBF57303030BDE8104047
:10570800FFF7BCBF08B519210648FFF7DDFFFAF718
:1057180005FEC0B2FFF7E3FF0A20BDE80840FFF727
:10572800ADBF00BF6A660020FEE7000053B94AB962
:10573800002908BF00281CBF4FF0FF314FF0FF3091
:1057480000F03CB882B0EC462DE9005000F01EF89D
:10575800DDF804E002B00CBC704700BF2DE9F04151
:10576800069C154606460F46984600F029F805FBA4
:1057780001F300FB0838A5FB0023B21A434467EB8A
:105788000303C4E90023BDE8F08100BF2DE9F0411F
:10579800069C904606460F461D4600F05FF900FB42
:1057A80005F5A0FB082308FB0155B21A2B4467EB4B
:1057B8000303C4E90023BDE8F08100BF704700BFC0
:1057C80000292DE9F043C0F2A6800026002BC0F284
:1057D8009C80884694469E46154604460F46002BF4
:1057E8003DD18A4259D9B2FA82F33BB1C3F12002C2
:1057F8009F4020FA02F29D4017439C40290C220C3E
:10580800B7FBF1FEA8B201FB1E7742EA074700FB8F
:105818000EF3BB420AD97F190EF1FF3280F00581E1
:10582800BB4240F20281AEF1020E2F44FF1AA4B22D
:10583800B7FBF1F301FB137744EA074700FB03F0DA
:10584800B84208D97F1903F1FF3280F0F080B842DE
:1058580040F2ED80023B43EA0E43002203E08B4214
:105868000FD900221346341C18BF012460424FF0A0
:10587800000565EB45015840514000196941BDE8F4
:10588800F083B3FA83F2002A40F086808B4202D379
:10589800844500F2DB800123E5E712B90123B3FB5D
:1058A800F2F5B5FA85F000283BD1781B4FEA154E82
:1058B8001FFA85FC0122B0FBFEF8210C0EFB18072D
:1058C80041EA07470CFB08F3BB4207D97F1908F1E7
:1058D800FF3102D2BB4200F2BD808846FF1AA4B253
:1058E800B7FBFEF30EFB137744EA07470CFB03FCF8
:1058F800BC4507D97F1903F1FF3102D2BC4500F23C
:10590800A7800B4643EA0843ADE752426FEA060612
:1059180063EB43035DE7404261EB41014FF0FF3623
:1059280054E7C0F1200224FA02F107FA00F3854097
:105938004FEA154ED7401943B7FBFEF20B0C0EFB8E
:1059480012771FFA85FC43EA07430CFB02F79F42D4
:1059580004FA00F407D95B1902F1FF3074D29F42B0
:1059680072D9023A2B44DF1B89B2B7FBFEF80EFB53
:10597800187341EA03430CFB08F79F4208D95B19E7
:1059880008F1FF315CD29F425AD9A8F102082B4492
:10599800D81B48EA02428EE7C2F120032CFA03F131
:1059A8000EFA02FE20FA03F741EA0E0E08FA02F098
:1059B80028FA03F14FEA1E453843B1FBF5F8030C0A
:1059C80005FB18111FFA8EF743EA014107FB08F39C
:1059D8008B420CFA02FC09D911EB0E0108F1FF39D0
:1059E80030D28B422ED9A8F102087144C91A80B26C
:1059F800B1FBF5F305FB131140EA014107FB03F77F
:105A08008F4208D911EB0E0103F1FF3016D28F42F5
:105A180014D9023B714443EA0843C91BA3FB0C8910
:105A2800494509D305D000221DE79646FEE61346F0
:105A380011E794404445F6D2013BF4E70346EAE710
:105A48008846A5E7C846D1E702468CE713460AE729
:105A5800023B57E7A8F102082F443FE72DE9F04140
:105A6800002B44D18A42154604464FD9B2FA82F730
:105A78000E464FB1C7F12003B94020FA03F602FAE7
:105A880007F50E4300FA07F44FEA154E230CB6FB50
:105A9800FEF0AFB20EFB106143EA014307FB00F1D1
:105AA800994209D95B1900F1FF3280F0EC809942E4
:105AB80040F2E98002382B445A1AA4B2B2FBFEF332
:105AC8000EFB132244EA024207FB03F7974208D968
